:020000004D2889
:1000080080318B1C082809280A288B102000111C15
:100018000E280F284B2818107B0897002A089600EE
:1000280018140130FC007C08F8070E307802031C15
:100038001E281F284928F801FA1C232824283528B7
:10004800FA1A272828282E288E100E118C128E12A4
:10005800FA1649288E140E158C168E16FA1249288F
:100068004928FA1D382839283C2802308E063E28AF
:100078008E148E167A1D41284228452804308E0693
:1000880049280E158C164928492811104B2891012A
:10009800090088018C2C84316324803120008C165F
:1000A8008E160E158E148B123C30AD002D08FB00F9
:1000B800B130AD002D08AA005230A4000330A500CD
:1000C800ED30A2000330A300AF30A0000330A10040
:1000D8009030A6000130A7002630A8000230A90001
:1000E800FA11FA107A107A12FA127A2820008E1968
:1000F8007E287F2806290E1A822883280629FA14C2
:100108003C30AD002D08FB00B130AD002D08AA0031
:100118008E1C8F28902895280E19932894287A28C1
:100128009528F601F701003077026430031976024A
:10013800031C9F28A028A228B028B0280130F60761
:100148000030F73D00307702643003197602031C53
:10015800AE28AF28A228B0288D3021009D00F901D3
:1001680006307902031CB928BA28BC28C728C72832
:1001780001302000AD002D08F90706307902031C74
:10018800C628C728BC2821009D14CB2800002100C0
:100198009D18CF28D028CA28D1281C082000AD00D7
:1001A8002D08F10021001B082000AD002D08F000EB
:1001B8007108F501F5077008F401F4077508F301F3
:1001C800F3077408F201F20725087302031DEE28ED
:1001D800240872020318F128F2287A287A168E1455
:1001E8008E160E158C16F801F9288E19FC28FD2894
:1001F8007A280E1E00290129F9287A287A287A28CF
:100208007A287A28FA108E190A290B29B12AFA15A0
:100218008E180F291029AD2A8E12F601F701003029
:100228007702643003197602031C1B291C291E2936
:100238002C292C290130F6070030F73D00307702D1
:10024800643003197602031C2A292B291E292C291C
:100258008D3021009D00F90106307902031C3529F3
:10026800362938294329432901302000AD002D08BB
:10027800F90706307902031C42294329382921004D
:100288009D144729000021009D184B294C29462917
:100298004D291C082000AD002D08F10021001B0885
:1002A8002000AD002D08F0007108F501F507700871
:1002B800F401F4077508F301F3077408F201F20773
:1002C80025087302031D6A292408720203186D2980
:1002D8006E2979297A168E148E16F80173298E1DC7
:1002E80076297729732979297929F601F701303098
:1002F8007702D43003197602031C832984298629BE
:10030800942994290130F6070030F73D3030770200
:10031800D43003197602031C92299329862994293B
:10032800913021009D00F90106307902031C9D29B6
:100338009E29A029AB29AB2901302000AD002D084A
:10034800F90706307902031CAA29AB29A029210044
:100358009D14AF29000021009D18B329B429AE29A6
:10036800B5291C082000AD002D08F10021001B084C
:100378002000AD002D08F0007108F501F5077008A0
:10038800F401F40727087502031DCC292608740216
:100398000318CF29D029D2297A10D2297508290221
:1003A800031DD829740828020318DB29DC29DF2952
:1003B8007A16F801DF298D3021009D00F9010630F9
:1003C8007902031CE829E929EB29F629F6290130E5
:1003D8002000AD002D08F90706307902031CF52925
:1003E800F629EB2921009D14FA29000021009D1807
:1003F800FE29FF29F929002A1C082000AD002D0834
:10040800F10021001B082000AD002D08F000710844
:10041800F501F5077008F401F4077508F301F3070F
:100428007408F201F207893021009D00F9010630B5
:100438007902031C202A212A232A2E2A2E2A013057
:100448002000AD002D08F90706307902031C2D2A7B
:100458002E2A232A21009D14322A000021009D18EB
:10046800362A372A312A382A1C082000AD002D08E0
:10047800F10021001B082000AD002D08F0007108D4
:10048800F501F5077008F401F4077508AC01AC072D
:100498007408AB01AB0773082502031D552A7208BF
:1004A80024020318582A592A802A73082302031D94
:1004B8005F2A72082202031C622A632A762A2C0801
:1004C8002102031D692A2B082002031C6C2A6D2AAD
:1004D800762A3C30AD002D08FB00B130AD002D0868
:1004E800AA008C2A9E30AD002D08FB005830AD00C4
:1004F8002D08AA008C2A8C2A7A168E148E16F801DA
:10050800852A8E1D882A892A852A8C2A8C2A8C2A53
:100518008E1C8F2A902A8C2A8E16F601F70113302A
:100528007702883003197602031C9B2A9C2A9E2A8C
:10053800B22AB22A0130F6070030F73D13307702AD
:10054800883003197602031CAA2AAB2A9E2AB22AEB
:10055800B22A8E148E16B22AB22AFA1120000E1A66
:10056800B62AB72A5D2C7A150E19BB2ABC2A592C33
:100578008C12F601F7010030770264300319760215
:10058800031CC72AC82ACA2AD82AD82A0130F6073B
:100598000030F73D00307702643003197602031CFF
:1005A800D62AD72ACA2AD82A8D3021009D00F901D7
:1005B80006307902031CE12AE22AE42AEF2AEF2A0C
:1005C80001302000AD002D08F90706307902031C20
:1005D800EE2AEF2AE42A21009D14F32A00002100C4
:1005E8009D18F72AF82AF22AF92A1C082000AD00DB
:1005F8002D08F10021001B082000AD002D08F00097
:100608007108F501F5077008F401F4077508F3019E
:10061800F3077408F201F20725087302031D162B6D
:10062800240872020318192B1A2B252B7A160E157B
:100638008C16F8011F2B0E1E222B232B1F2B252B6C
:10064800252BF601F70130307702D43003197602F2
:10065800031C2F2B302B322B402B402B0130F6075D
:100668000030F73D30307702D43003197602031C8E
:100678003E2B3F2B322B402B913021009D00F9015E
:1006880006307902031C492B4A2B4C2B572B572B2E
:1006980001302000AD002D08F90706307902031C4F
:1006A800562B572B4C2B21009D145B2B000021004F
:1006B8009D185F2B602B5A2B612B1C082000AD0066
:1006C8002D08F10021001B082000AD002D08F000C6
:1006D8007108F501F5077008F401F4072708750299
:1006E800031D782B2608740203187B2B7C2B7E2B8A
:1006F8007A107E2B75082902031D842B74082802A2
:100708000318872B882B8B2B7A16F8018B2B8D30AF
:1007180021009D00F90106307902031C942B952BCA
:10072800972BA22BA22B01302000AD002D08F90732
:1007380006307902031CA12BA22B972B21009D14B4
:10074800A62B000021009D18AA2BAB2BA52BAC2BA8
:100758001C082000AD002D08F10021001B08200016
:10076800AD002D08F0007108F501F5077008F401D7
:10077800F4077508F301F3077408F201F2078930EA
:1007880021009D00F90106307902031CCC2BCD2BEA
:10079800CF2BDA2BDA2B01302000AD002D08F9071A
:1007A80006307902031CD92BDA2BCF2B21009D149C
:1007B800DE2B000021009D18E22BE32BDD2BE42B20
:1007C8001C082000AD002D08F10021001B082000A6
:1007D800AD002D08F0007108F501F5077008F40167
:1007E800F4077508AC01AC077408AB01AB077308D4
:1007F8002502031D012C720824020318042C052C61
:100808002C2C73082302031D0B2C72082202031CD4
:100818000E2C0F2C222C2C082102031D152C2B0822
:100828002002031C182C192C222C3C30AD002D085A
:10083800FB00B130AD002D08AA00382C9E30AD0069
:100848002D08FB005830AD002D08AA00382C382C94
:100858007A160E158C16F801312C0E1E342C352CF8
:10086800312C382C382C382C0E1D3B2C3C2C382C99
:100878008C16F601F70113307702883003197602D7
:10088800031C472C482C4A2C7A287A280130F60772
:100898000030F73D13307702883003197602031CC5
:1008A800562C572C4A2C7A287A280E158C167A281A
:1008B8007A287A117A287A287A287A284D28733063
:1008C80021009900D0309E00143023008C000130A4
:1008D8008E00220091019201930194011C302100A5
:1008E8008C0019308E003C3020009700B130960003
:1008F8000530980091010130210091002000181462
:1009080080302100950040308B008B128B17080037
:10091800FA01F001F101F201F301F401F501F60128
:0E092800F701F801F901AB01AC0120004F28E6
:020000040001F9
:02000E0004DA12
:00000001FF
